:020000040000FA
:020000001228C4
:08000800A000030E8301A1001A
:100010000A08A2008A0122088A00210E8300A00E8D
:10002000200E09008312850186018701880189015C
:1000300083160030850000308600003087000030D5
:1000400088000730890083120C30850064308600F8
:1000500031308700993088008420842084208420D7
:100060000A30850062308600313087009930880080
:100070009420942094205720093085006130860018
:10008000343087009C3088008420842084208420A1
:100090000930850061308600323087009A30880050
:1000A000942094209420572063205720242809303E
:1000B00085006130860031308700993088009420B7
:1000C0009420942008000530A60001308500993066
:1000D0008600C93087006130880084208420093080
:1000E0008500613086003130870099308800942087
:1000F0000130850001308600013087000130880022
:100100009420A60B6F2808000730A3002F30A4000E
:100110000330A500A30B8D28A40B8F28A50B8A28DC
:1001200091289228932808001E30A3004F30A40085
:0E013000A30B9B28A40B98289D280000080014
:02400E00713F00
:00000001FF
